:020000040800F2
:100000008806002089010008330500080D05000856
:100010002F050008430200088D0F000800000000B3
:100020000000000000000000000000004106000881
:100030000D03000800000000350500086D070008EA
:10004000A3010008A3010008A3010008A301000800
:10005000A3010008A3010008A3010008A3010008F0
:10006000A3010008A3010008A3010008A3010008E0
:10007000A3010008A3010008A3010008A3010008D0
:10008000A3010008A3010008A3010008A3010008C0
:10009000A3010008A3010008A3010008A3010008B0
:1000A000A3010008A3010008A3010008A3010008A0
:1000B000A3010008A3010008A3010008A301000890
:1000C000A3010008A3010008A3010008A301000880
:1000D000A3010008A3010008A3010008A301000870
:1000E000A3010008A3010008A301000800F002F822
:1000F00000F03AF80AA090E8000C82448344AAF188
:100100000107DA4501D100F02FF8AFF2090EBAE885
:100110000F0013F0010F18BFFB1A43F0010318473B
:10012000C8100000E8100000103A24BF78C878C159
:10013000FAD8520724BF30C830C144BF04680C60ED
:10014000704700000023002400250026103A28BF35
:1001500078C1FBD8520728BF30C148BF0B60704739
:100160001FB51FBD10B510BD00F031F81146FFF7E7
:10017000F7FF00F00DFF00F04FF803B4FFF7F2FFB8
:1001800003BC00F057F800000948804709480047C1
:10019000FEE7FEE7FEE7FEE7FEE7FEE7FEE7FEE737
:1001A000FEE7FEE704480549054A064B7047000094
:1001B00075070008ED000008880000208806002070
:1001C00088020020880200207047704770477546FB
:1001D00000F02CF8AE4605006946534620F00700B3
:1001E000854618B020B5FFF7DDFFBDE820404FF091
:1001F00000064FF000074FF000084FF0000B21F011
:100200000701AC46ACE8C009ACE8C009ACE8C009DD
:10021000ACE8C0098D46704710B50446AFF30080C6
:100220002046BDE81040FFF7A8BF00000048704717
:100230002400002001491820ABBEFEE72600020082
:10024000704700BFFEE7000010B54021014800F0F4
:1002500036FB10BD0008004010B5602200210448A4
:1002600000F0BFFC01220021014800F00DFB10BD91
:100270000008004010B54021014800F029FB10BDE6
:100280000008004010B560220421044800F0A9FCD9
:1002900001220421014800F0F7FA10BD00080040D7
:1002A00010B54021014800F020FB10BD00080040BF
:1002B00010B560220821044800F093FC01220821B7
:1002C000014800F0E1FA10BD0008004010B54021DF
:1002D000014800F013FB10BD0008004010B560227B
:1002E0000C21044800F07DFC01220C21014800F0A3
:1002F000CBFA10BD0008004010B50121092000F024
:100300002BF90121042000F017F910BD70470000FF
:1003100010B50221034800F0D3F80421014800F091
:10032000CFF810BD000C014010B50221034800F0C9
:10033000C9F80421014800F0C5F810BD000C0140C7
:1003400008B5684600F0C0F84FF47070ADF80000D2
:1003500018208DF8030003208DF8020069460D482F
:1003600000F01AF84FF48040ADF8000048208DF8F6
:1003700003006946074800F00FF84BF20600ADF89D
:10038000000010208DF803006946024800F004F8D0
:1003900008BD0000000C01402DE9F0410246002597
:1003A0000026002000230024002791F803C00CF051
:1003B0000F0591F803C00CF0100CBCF1000F03D036
:1003C00091F802C04CEA050591F800C0BCF1000F9D
:1003D00031D0146800202BE04FF0010C0CFA00F330
:1003E000B1F800C00CEA03069E4220D183004FF012
:1003F0000F0C0CFA03F7BC4305FA03FC4CEA0404A7
:1004000091F803C0BCF1280F06D14FF0010C0CFA93
:1004100000FCC2F814C00AE091F803C0BCF1480F18
:1004200005D14FF0010C0CFA00FCC2F810C0401CC2
:100430000828D1D31460B1F800C0BCF1FF0F34DD3F
:10044000546800202EE000F1080C4FF0010808FA73
:100450000CF3B1F800C00CEA03069E4221D18300E0
:100460004FF00F0C0CFA03F7BC4305FA03FC4CEAFF
:10047000040491F803C0BCF1280F05D100F1080C69
:1004800008FA0CF8C2F8148091F803C0BCF1480FC8
:1004900007D100F1080C4FF0010808FA0CF8C2F877
:1004A0001080401C0828CED35460BDE8F08102467D
:1004B000002093680B400BB1012000E00020704742
:1004C00041617047016170474FF6FF710180022161
:1004D00081700421C170704710B5FFF70DFFFFF761
:1004E0002FFF00F08FF900F00BFC10BD10B5FFF7E7
:1004F000B3FEFFF7DDFEFFF717FF10BD10B5FFF7E6
:10050000C1FEFFF7EBFEFFF70FFF10BD00BFFEE7D8
:1005100010B5FFF799FEFFF7ADFEFFF7C1FEFFF73D
:10052000D5FEFFF7F5FE142000F054F910BD00BF12
:10053000FEE770477047000029B1064AD2690243BE
:10054000044BDA6104E0034AD2698243014BDA6169
:10055000704700000010024029B1064A9269024328
:10056000044B9A6104E0034A92698243014B9A6109
:10057000704700000010024070B500254FF4805114
:100580001048FFF79FFF012418E04FF480510D48F9
:10059000FFF796FF322000F01DF94FF48051094813
:1005A000FFF790FF322000F015F94FF48041054825
:1005B000FFF77DFF00B125436006040E002CE4DC4C
:1005C000284670BD000C014070B5064600254FF46A
:1005D00080511A48FFF776FF4FF400411748FFF7A4
:1005E00071FF012426E006EA040028B14FF400411F
:1005F0001248FFF767FF04E04FF400410F48FFF790
:100600005FFF4FF480510D48FFF75AFF322000F092
:10061000E1F84FF480510948FFF754FF322000F011
:10062000D9F84FF480410548FFF741FF00B1254359
:100630006006040E002CD6DC284670BD000C01407C
:10064000704710B500F002F810BD00000CB5002096
:10065000019000903348006840F4803031490860D0
:1006600000BF3048006800F4003000900198401C42
:100670000190009818B90198B0F5A06FF1D1294800
:10068000006800F4003010B10120009001E000206B
:1006900000900098012843D12348006840F01000E2
:1006A000214908600846006820F0030008600846F9
:1006B000006840F0020008601A4840681949486024
:1006C0000846406848600846406840F480604860DA
:1006D0000846406820F47C1048600846406840F4B2
:1006E000E81048600846006840F08070086000BF6D
:1006F0000C48006800F000700028F9D009484068F4
:1007000020F00300074948600846406840F00200B6
:10071000486000BF0348406800F00C000828F9D189
:100720000CBD0000001002400020024010B5FFF791
:100730008BFDFFF7B5FDFFF7EBFD10BD10B5FFF723
:1007400099FDFFF7C3FDFFF7E3FD10BD10B5FFF7FF
:1007500091FDFFF7A5FDFFF7DBFD10BD10B5FFF71D
:1007600073FDFFF7B3FDFFF7D3FD10BD10B500F02B
:100770005DFB10BD10B51348006840F00100114941
:10078000086008464068104908400E49486008461D
:1007900000680E4908400B4908600846006820F4CC
:1007A000802008600846406820F4FE0048604FF44E
:1007B0001F008860FFF745FF4FF0006004490860A4
:1007C00010BD0000001002400000FFF8FFFFF6FE21
:1007D00008ED00E001B504490098086000BF024838
:1007E00000680028FBD108BD0800002010B50246B3
:1007F000002404E04FF47A70FFF7ECFF641C94428D
:10080000F8D310BD30B516480068164AB0FBF2F1B7
:10081000B1F1807F01D301201DE021F07F40401E17
:100820004FF0E022506150170F22002807DA13071B
:100830001D0E0D4B00F00F04241F1D5503E0130780
:100840001C0E0A4B1C5400BF00204FF0E0229061A8
:1008500007201061002008B100BFFEE730BD000096
:100860001000002040420F0018ED00E000E400E01E
:1008700021B1028842F08002028004E002884FF633
:100880007F731A400280704730B5002301248C40EA
:10089000A3B2048C9C430484048C02FA01F5ADB22B
:1008A0002C43048430BD21B1028842F00102028051
:1008B00004E002884FF6FE731A40028070470A4631
:1008C0000021018B4FF68F7319401143018370474C
:1008D0000A460021018B48F6FF7319404FF6FF735B
:1008E00003EA02231943018370470A460021818BE2
:1008F0004FF68F7319401143818370470A460021D8
:10090000818B48F6FF7319404FF6FF7303EA022309
:10091000194381837047000070B500240022002332
:10092000058C4FF6FE7635400584028C8388048B57
:100930004FF68F752C40B51E2C400D882C43751E2C
:100940002A400D892A434D882A43144DA8420BD0D2
:10095000134DA84208D0134DA84205D0124DA8420D
:1009600002D0124DA84213D14FF6F7752A404D8997
:100970002A434FF6FB752A408D882A434FF6FF65C0
:100980002B404FF6FF552B408D892B43CD892B43B0
:1009900083800483CD888586028470BD002C01404D
:1009A0000034014000400140004401400048014043
:1009B0000A460021018B4FF6F7731940114301835A
:1009C0007047000070B5002400220023058C4FF60C
:1009D000EF7635400584028C8388048B48F6FF75DA
:1009E0002C404FF6FF452C400D884FF6FF7606EA67
:1009F00005252C434FF6DF752A400D8906EA0515BB
:100A00002A434D8806EA05152A43154DA84202D00F
:100A1000144DA8421DD14FF67F752A404D894FF6DF
:100A2000FF7606EA05152A434FF6BF752A408D88E2
:100A300006EA05152A434FF6FF352B404FF2FF75A6
:100A40002B408D8906EA85052B43CD8906EA85056D
:100A50002B4383800483CD880587028470BD00000A
:100A6000002C0140003401400A460021018B4FF266
:100A7000FF7319404FF6FF7303EA02231943018302
:100A80007047000070B5002400220023058C4FF64B
:100A9000FF6635400584028C8388848B4FF68F7502
:100AA0002C404FF6FC752C400D882C434FF6FF551B
:100AB0002A400D894FF6FF7606EA05252A434D8820
:100AC00006EA05252A43154DA84202D0144DA84236
:100AD0001DD14FF2FF752A404D894FF6FF7606EA89
:100AE00005252A434FF6FF352A408D8806EA05255D
:100AF0002A434EF6FF752B404DF6FF752B408D892E
:100B000006EA05152B43CD8906EA05152B4383809C
:100B10008483CD888587028470BD0000002C01404D
:100B2000003401400A460021818B4FF6F7731940CB
:100B3000114381837047000070B500220023002418
:100B4000058C4EF6FF7635400584038C8488828BB5
:100B500048F6FF752A404FF6FF452A400D884FF6AC
:100B6000FF7606EA05252A434DF6FF752B400D89D1
:100B700006EA05352B434D8806EA05352B430B4D18
:100B8000A84202D00A4DA84208D14BF6FF752C406E
:100B90008D894FF6FF7606EA85152C438480828383
:100BA000CD88A0F84050038470BD0000002C0140A7
:100BB000003401400A460021818B4FF2FF73194037
:100BC0004FF6FF7303EA0223194381837047002124
:100BD000018041808180C180018141818181C18109
:100BE000704770B5034600200024184618300125D0
:100BF0008D40ACB21D8CA5431D8409B1082909D1D3
:100C000000EB6100056825F0700505600568154377
:100C100005600EE00D1FC5F34E052844056825F458
:100C2000E045056005684FF6FF7606EA0226354383
:100C3000056070BD81867047018770478187704766
:100C4000A0F8401070470000002202881D4B984217
:100C50000ED01D4B98420BD0B0F1804F08D01B4BEB
:100C6000984205D01A4B984202D01A4B984204D1B0
:100C70004FF68F731A404B881A43174B984207D090
:100C8000164B984204D04FF6FF431A40CB881A43C4
:100C900002808B8883850B8803850A4B98420BD092
:100CA000094B984208D00E4B984205D00D4B984204
:100CB00002D00D4B984201D10B7A03860123838227
:100CC00070470000002C0140003401400004004047
:100CD00000080040000C00400010004000140040DC
:100CE0000040014000440140004801404FF6FF71C0
:100CF000818000210180C180418001727047000025
:100D00002DE9F04F89B00024A1464FF4E15440484A
:100D1000D0F800904FF47A70B4FBF0F0401E3D49DB
:100D2000088006A8FFF7E2FFB9FBF4F0401E80B28E
:100D3000ADF8180037480088ADF81C000020ADF869
:100D40001A0006A93448FFF77FFF4FF0190AD3466F
:100D50001920019000902F480088401C0AFB00F0E9
:100D6000642190FBF1F085B22A480088401C0BFBFF
:100D700000F090FBF1F086B226490988491C0198E1
:100D80004843642190FBF1F087B222490988491C4D
:100D900000984843642190FBF1F01FFA80F802A804
:100DA000FFF715FF6020ADF808000120ADF80A003C
:100DB000ADF80E5002A91848FFF7AEFD0021164805
:100DC000FFF7F6FDADF80E6002A91348FFF7FAFD34
:100DD00000211148FFF748FEADF80E7002A90E4839
:100DE000FFF750FE00210C48FFF79CFEADF80E8087
:100DF00002A90948FFF7A0FE00210748FFF7DAFE25
:100E000001210548FFF734FD09B0BDE8F08F00006F
:100E1000100000200C0000200008004010B5012147
:100E20000148FFF740FD10BD00080040044800687D
:100E300020B103480068401E014908607047000067
:100E40000800002010B50748007800F03FF805487A
:100E5000007800F05BF8FFF715FAFFF729FAFFF7C3
:100E600063FA10BD0000002010B50748007800F0BC
:100E70000DF80548007800F069F8FFF7EDF9FFF785
:100E80002DFAFFF751FA10BD0000002070B504469E
:100E9000642C08DA0B480088401C6043642190FBF6
:100EA000F1F085B208E007480088401C60434FF429
:100EB0007A7190FBF1F085B229460348FFF7BAFE3C
:100EC00070BD00000C0000200008004070B5044612
:100ED000642C08DA0B480088401C6043642190FBB6
:100EE000F1F085B208E007480088401C60434FF4E9
:100EF0007A7190FBF1F085B229460348FFF79CFE1A
:100F000070BD00000C0000200008004070B50446D1
:100F1000642C08DA0B480088401C6043642190FB75
:100F2000F1F085B208E007480088401C60434FF4A8
:100F30007A7190FBF1F085B229460348FFF77EFEF7
:100F400070BD00000C0000200008004070B5044691
:100F5000642C08DA0B480088401C6043642190FB35
:100F6000F1F085B208E007480088401C60434FF468
:100F70007A7190FBF1F085B229460348FFF760FED5
:100F800070BD00000C0000200008004000BFFEE71C
:100F9000FFF7A2FAFFF742FFFFF7BAFA00F0C2F834
:100FA000B1E000F0DDF85848407880F0EF0010B96B
:100FB0005A20564908705448407880F0BF0010B954
:100FC0003C20524908705048007880F0EF0088B902
:100FD0004F480078012822D04C480078FFF756FF90
:100FE0004A480078FFF792FFFFF780FA012048494E
:100FF000087014E046480078012810D11420FFF74B
:1010000045FF1420FFF782FF0120FFF7EFFBFFF7FA
:101010008DFB1420FFF7DEFB00203D4908703A48A5
:10102000007880F0BF0088B939480078022822D0C3
:1010300036480078FFF74AFF34480078FFF786FF0C
:10104000FFF75CFA02203249087014E0304800785B
:10105000022810D11420FFF739FF1420FFF776FF84
:101060000120FFF7C3FBFFF769FB1420FFF7B2FB7A
:101070000020274908702448007880F07F0048B994
:101080002348007803281AD0FFF7DCFE032020490C
:10109000087014E01E480078032810D11420FFF7D0
:1010A00015FF1420FFF732FF0120FFF79FFBFFF72A
:1010B0004DFB1420FFF78EFB0020154908701248E5
:1010C000007880F0DF0048B91148007804281AD071
:1010D000FFF7CAFE04200E49087014E00C4800789F
:1010E000042810D11420FFF7D1FE1420FFF72EFFA3
:1010F0000120FFF77BFBFFF731FB1420FFF76AFBB2
:101100000020034908704CE7020000200000002086
:101110000100002010B50120FFF756FA4220FFF72A
:1011200053FA10BD10B54FF480510B48FFF7CAF9C0
:101130004FF400410848FFF7C5F94FF40051064845
:10114000FFF7C0F9002404E0FF2004490855601CA3
:10115000C4B2062CF8DB10BD000C014002000020D8
:1011600010B54FF400511E48FFF7AAF90A20FFF707
:1011700031FBFFF7CFFF41280AD10020FFF724FA07
:10118000FFF7FAF917490870FFF7F6F915494870A3
:10119000FFF7C0FF73281AD10020FFF715FAFFF7F9
:1011A000EBF910490870FFF7E7F90E494870FFF7AF
:1011B000E3F90C498870FFF7DFF90A49C870FFF7B7
:1011C000DBF908490871FFF7D7F90649487105208E
:1011D000FFF700FB4FF400510148FFF773F910BD12
:1011E000000C01400200002008120008000000204E
:1011F00024000000280100082C1200082400002010
:1012000064060000440100083C00000000000000EB
:10121000000000000000000000A24A0400000000DE
:0C1220000000000001020304060708099A
:04000005080000ED02
:00000001FF
